{
  "_format": "hh-sol-artifact-1",
  "contractName": "CropToken",
  "sourceName": "contracts/cropToken.sol",
  "abi": [
    {
      "anonymous": false,
      "inputs": [
        {
          "indexed": false,
          "internalType": "uint256",
          "name": "id",
          "type": "uint256"
        },
        {
          "indexed": false,
          "internalType": "string",
          "name": "metadata",
          "type": "string"
        },
        {
          "indexed": false,
          "internalType": "address",
          "name": "owner",
          "type": "address"
        }
      ],
      "name": "CropCreated",
      "type": "event"
    },
    {
      "anonymous": false,
      "inputs": [
        {
          "indexed": false,
          "internalType": "uint256",
          "name": "id",
          "type": "uint256"
        },
        {
          "indexed": false,
          "internalType": "address",
          "name": "from",
          "type": "address"
        },
        {
          "indexed": false,
          "internalType": "address",
          "name": "to",
          "type": "address"
        }
      ],
      "name": "CropTransferred",
      "type": "event"
    },
    {
      "anonymous": false,
      "inputs": [
        {
          "indexed": false,
          "internalType": "address",
          "name": "user",
          "type": "address"
        }
      ],
      "name": "UserRegistered",
      "type": "event"
    },
    {
      "inputs": [
        {
          "internalType": "uint256",
          "name": "_id",
          "type": "uint256"
        },
        {
          "internalType": "address",
          "name": "_owner",
          "type": "address"
        }
      ],
      "name": "authenticate",
      "outputs": [
        {
          "internalType": "bool",
          "name": "",
          "type": "bool"
        }
      ],
      "stateMutability": "view",
      "type": "function"
    },
    {
      "inputs": [
        {
          "internalType": "string",
          "name": "_metadata",
          "type": "string"
        }
      ],
      "name": "createCrop",
      "outputs": [],
      "stateMutability": "nonpayable",
      "type": "function"
    },
    {
      "inputs": [
        {
          "internalType": "uint256",
          "name": "",
          "type": "uint256"
        }
      ],
      "name": "crops",
      "outputs": [
        {
          "internalType": "uint256",
          "name": "id",
          "type": "uint256"
        },
        {
          "internalType": "string",
          "name": "metadata",
          "type": "string"
        },
        {
          "internalType": "address",
          "name": "owner",
          "type": "address"
        }
      ],
      "stateMutability": "view",
      "type": "function"
    },
    {
      "inputs": [
        {
          "internalType": "uint256",
          "name": "_id",
          "type": "uint256"
        }
      ],
      "name": "getCrop",
      "outputs": [
        {
          "internalType": "uint256",
          "name": "",
          "type": "uint256"
        },
        {
          "internalType": "string",
          "name": "",
          "type": "string"
        },
        {
          "internalType": "address",
          "name": "",
          "type": "address"
        }
      ],
      "stateMutability": "view",
      "type": "function"
    },
    {
      "inputs": [],
      "name": "nextId",
      "outputs": [
        {
          "internalType": "uint256",
          "name": "",
          "type": "uint256"
        }
      ],
      "stateMutability": "view",
      "type": "function"
    },
    {
      "inputs": [],
      "name": "registerUser",
      "outputs": [],
      "stateMutability": "nonpayable",
      "type": "function"
    },
    {
      "inputs": [
        {
          "internalType": "address",
          "name": "",
          "type": "address"
        }
      ],
      "name": "registeredUsers",
      "outputs": [
        {
          "internalType": "bool",
          "name": "",
          "type": "bool"
        }
      ],
      "stateMutability": "view",
      "type": "function"
    },
    {
      "inputs": [
        {
          "internalType": "uint256",
          "name": "_id",
          "type": "uint256"
        },
        {
          "internalType": "address",
          "name": "_to",
          "type": "address"
        }
      ],
      "name": "transferCrop",
      "outputs": [],
      "stateMutability": "nonpayable",
      "type": "function"
    }
  ],
  "bytecode": "0x608060405234801561001057600080fd5b50610b0a806100206000396000f3fe608060405234801561001057600080fd5b50600436106100885760003560e01c80636adaac521161005b5780636adaac52146100f957806370c9f1a51461010c5780638bc7fa9c1461012e578063f3c4adfd1461014157600080fd5b80630e50cee51461008d5780634d3820eb146100c5578063586ffae8146100cf57806361b8ce8c146100e2575b600080fd5b6100b061009b3660046107a0565b60026020526000908152604090205460ff1681565b60405190151581526020015b60405180910390f35b6100cd610154565b005b6100b06100dd3660046107c2565b610209565b6100eb60015481565b6040519081526020016100bc565b6100cd6101073660046107c2565b610322565b61011f61011a3660046107ee565b6104f4565b6040516100bc93929190610807565b61011f61013c3660046107ee565b6105a8565b6100cd61014f366004610886565b610696565b3360009081526002602052604090205460ff16156101b95760405162461bcd60e51b815260206004820152601760248201527f5573657220616c7265616479207265676973746572656400000000000000000060448201526064015b60405180910390fd5b33600081815260026020908152604091829020805460ff1916600117905590519182527f54db7a5cb4735e1aac1f53db512d3390390bb6637bd30ad4bf9fc98667d9b9b9910160405180910390a1565b3360009081526002602052604081205460ff166102385760405162461bcd60e51b81526004016101b090610937565b60008060008581526020019081526020016000206040518060600160405290816000820154815260200160018201805461027190610964565b80601f016020809104026020016040519081016040528092919081815260200182805461029d90610964565b80156102ea5780601f106102bf576101008083540402835291602001916102ea565b820191906000526020600020905b8154815290600101906020018083116102cd57829003601f168201915b5050509183525050600291909101546001600160a01b0390811660209092019190915260409091015181169084161491505092915050565b3360009081526002602052604090205460ff166103515760405162461bcd60e51b81526004016101b090610937565b600082815260208190526040902060028101546001600160a01b031633146103ca5760405162461bcd60e51b815260206004820152602660248201527f4f6e6c7920746865206f776e65722063616e207472616e736665722074686973604482015265103a37b5b2b760d11b60648201526084016101b0565b6001600160a01b0382166104205760405162461bcd60e51b815260206004820152601f60248201527f43616e6e6f74207472616e7366657220746f207a65726f20616464726573730060448201526064016101b0565b6001600160a01b03821660009081526002602052604090205460ff166104885760405162461bcd60e51b815260206004820152601c60248201527f526563697069656e74206d75737420626520726567697374657265640000000060448201526064016101b0565b6002810180546001600160a01b031981166001600160a01b0385811691821790935560408051878152939092166020840181905291830152907f36066a1634f40b565f6f7bca8b333ca6577076b6304d1517cfe7878e42e623499060600160405180910390a150505050565b6000602081905290815260409020805460018201805491929161051690610964565b80601f016020809104026020016040519081016040528092919081815260200182805461054290610964565b801561058f5780601f106105645761010080835404028352916020019161058f565b820191906000526020600020905b81548152906001019060200180831161057257829003601f168201915b505050600290930154919250506001600160a01b031683565b60006060600080600080868152602001908152602001600020604051806060016040529081600082015481526020016001820180546105e690610964565b80601f016020809104026020016040519081016040528092919081815260200182805461061290610964565b801561065f5780601f106106345761010080835404028352916020019161065f565b820191906000526020600020905b81548152906001019060200180831161064257829003601f168201915b5050509183525050600291909101546001600160a01b03166020918201528151908201516040909201519097919650945092505050565b3360009081526002602052604090205460ff166106c55760405162461bcd60e51b81526004016101b090610937565b600180546040805160608101825282815260208082018681523383850152600085815291829052929020815181559151929390929082019061070790826109ed565b5060409182015160029190910180546001600160a01b0319166001600160a01b03909216919091179055517f03db0c81dbd2ac80c0baaba3a7d4376e418dbb1eec3f95649bdf2369d07600c29061076390839085903390610807565b60405180910390a16001805490600061077b83610aad565b91905055505050565b80356001600160a01b038116811461079b57600080fd5b919050565b6000602082840312156107b257600080fd5b6107bb82610784565b9392505050565b600080604083850312156107d557600080fd5b823591506107e560208401610784565b90509250929050565b60006020828403121561080057600080fd5b5035919050565b83815260006020606081840152845180606085015260005b8181101561083b5786810183015185820160800152820161081f565b5060008482016080908101919091526001600160a01b03959095166040850152601f01601f1916909201909201949350505050565b634e487b7160e01b600052604160045260246000fd5b60006020828403121561089857600080fd5b813567ffffffffffffffff808211156108b057600080fd5b818401915084601f8301126108c457600080fd5b8135818111156108d6576108d6610870565b604051601f8201601f19908116603f011681019083821181831017156108fe576108fe610870565b8160405282815287602084870101111561091757600080fd5b826020860160208301376000928101602001929092525095945050505050565b602080825260139082015272155cd95c881b9bdd081c9959da5cdd195c9959606a1b604082015260600190565b600181811c9082168061097857607f821691505b60208210810361099857634e487b7160e01b600052602260045260246000fd5b50919050565b601f8211156109e857600081815260208120601f850160051c810160208610156109c55750805b601f850160051c820191505b818110156109e4578281556001016109d1565b5050505b505050565b815167ffffffffffffffff811115610a0757610a07610870565b610a1b81610a158454610964565b8461099e565b602080601f831160018114610a505760008415610a385750858301515b600019600386901b1c1916600185901b1785556109e4565b600085815260208120601f198616915b82811015610a7f57888601518255948401946001909101908401610a60565b5085821015610a9d5787850151600019600388901b60f8161c191681555b5050505050600190811b01905550565b600060018201610acd57634e487b7160e01b600052601160045260246000fd5b506001019056fea2646970667358221220f2c9c35520a27a9394bfb4db4335ea5e1da6ecd6acb587b38716075ad293a77364736f6c63430008140033",
  "linkReferences": {},
  "deployedLinkReferences": {}
}